:020000040800F2
:1000000000500020BD050008DD030008DF030008E4
:10001000E1030008E3030008E50300080000000016
:10002000000000000000000000000000E7030008DE
:10003000E903000800000000EB030008ED030008DE
:100040000506000805060008050600080506000864
:100050000506000805060008050600080506000854
:100060000506000805060008050600080506000844
:100070000506000805060008050600080506000834
:100080000506000805060008050600080506000824
:100090000506000805060008050600080506000814
:1000A00005060008F5030008050600080504000819
:1000B00005060008050600080506000805060008F4
:1000C00005060008050600080506000805060008E4
:1000D00005060008050600080506000805060008D4
:1000E00005060008050600080506000800000000D7
:1000F0000000000000000000000000000000000000
:0C01000000000000000000005FF808F1A3
:10010C0010B5054C237833B9044B13B10448AFF345
:10011C0000800123237010BD3C040020000000006F
:10012C00C021000808B5034B1BB103490348AFF3CA
:10013C00008008BD0000000040040020C021000821
:10014C0000B585B000230193029303931048114A24
:10015C000260836003730375C36143600123036111
:10016C0000F0E2FC68B905230193012302930023FC
:10017C00039301A9064800F051FB28B905B05DF8BE
:10018C0004FB00F080F8EEE700F07DF8F6E700BF26
:10019C00580400200024014000B587B000230293CE
:1001AC000393049305930268114B9A4202D007B053
:1001BC005DF804FB03F56C439A6942F400729A6192
:1001CC009A6902F400720092009A9A6942F0040251
:1001DC009A619B6903F004030193019B2023029312
:1001EC000323039302A9034800F08EFDDFE700BF51
:1001FC00002401400008014030B589B0002404946B
:10020C000594069407941D4B9A6942F010029A616A
:10021C009A6902F010020092009A9A6942F0200248
:10022C009A619A6902F020020192019A9A6942F04D
:10023C0004029A619A6902F004020292029A9A6983
:10024C0042F008029A619B6903F008030393039B35
:10025C000B4D22464FF40051284600F06EFE4FF431
:10026C00005304930123059306940223079304A9D6
:10027C00284600F049FD09B030BD00BF0010024017
:10028C0000100140704772B6FEE700B595B0282209
:10029C0000210DEB020001F0CBFE00230593069329
:1002AC0007930893099301930293039304930122F8
:1002BC000A924FF480330B930E92022211921293F6
:1002CC004FF4E01313930AA800F054FEC8B90F239F
:1002DC00059302210691002307934FF48062089244
:1002EC00099305A801F078F868B9022301934FF43B
:1002FC000043039301A801F03BF930B915B05DF848
:10030C0004FBFFF7C0FFFFF7BEFFFFF7BCFF0000C9
:10031C0010B500F099F9FFF7B8FFFFF76DFF00F08B
:10032C00C5F8FFF70DFF164C204601F0CBFA002163
:10033C00204601F089FD0421204601F085FD11487D
:10034C0000F052FB05E000224FF400510E4800F083
:10035C00F4FD0C4C4FF0FF31204600F099F920468B
:10036C0000F058FA4FF40051074800F0DFFD002868
:10037C00E9D101224FF40051034800F0DEFDE8E71B
:10038C0088040020580400200010014082B00E4B5D
:10039C009A6942F001029A619A6902F00102009294
:1003AC00009ADA6942F08052DA61DB6903F080531B
:1003BC000193019B054A536823F0E06343F00073FB
:1003CC00536002B0704700BF0010024000000140B3
:1003DC00FEE7FEE7FEE7FEE7FEE770477047704773
:1003EC0008B500F043F908BD08B5024801F0A3FABE
:1003FC0008BD00BF8804002008B5024801F09BFA34
:10040C0008BD00BF88040020704700000268124B32
:10041C009A4200D0704700B583B003F564439A69E3
:10042C0042F400629A619B6903F400630193019B9F
:10043C0000221146192000F00DFC192000F042FC9E
:10044C00002211461B2000F005FC1B2000F03AFC9A
:10045C0003B05DF804FB00BF002C014000B587B071
:10046C000023029303930493059302680D4B9A4265
:10047C0002D007B05DF804FB03F564439A6942F0BF
:10048C0004029A619B6903F004030193019B4FF4EE
:10049C004073029302230393059302A9024800F0D0
:1004AC0033FCE6E7002C01400008014030B597B062
:1004BC000024129413941494159410941194099488
:1004CC000A940B940C940D940E940F9420252A46A8
:1004DC00214601A801F0ACFD3348344B03602323C3
:1004EC00436085606323C36004614461802383613E
:1004FC0001F018FB002842D14FF48053129312A93B
:10050C00294801F013FC00283CD1274801F036FBA8
:10051C0000283AD1302310930023119310A92248BC
:10052C0001F000FD002833D16023099308230A93BE
:10053C0000220B920C920D920E920F9209A91A485E
:10054C0001F07AFB38BB3A230A93042209A9164816
:10055C0001F072FB10BB00230193029303930493ED
:10056C0005934FF400520692089301A90E4801F02E
:10057C000FFDB0B90C48FFF771FF17B030BDFFF796
:10058C0082FEB9E7FFF77FFEBFE7FFF77CFEC1E70E
:10059C00FFF779FEC8E7FFF776FED4E7FFF773FEA7
:1005AC00D9E7FFF770FEE5E788040020002C014036
:1005BC00FFF72AFF0B480C490C4A002302E0D458E1
:1005CC00C4500433C4188C42F9D3094A094C002393
:1005DC0001E013600432A242FBD301F005FDFFF7EA
:1005EC0097FE7047000000203C04002028220008E1
:1005FC003C040020D8040020FEE7000010B504469F
:10060C000E4B18784FF47A73B3FBF0F30C4A106866
:10061C00B0FBF3F000F064FB68B90F2C01D901209A
:10062C000AE0002221464FF0FF3000F013FB054B8F
:10063C001C60002000E0012010BD00BF0400002061
:10064C00000000200800002008B5074A136843F09A
:10065C0010031360032000F0EBFA0020FFF7CEFF2D
:10066C00FFF794FE002008BD00200240034A1168E9
:10067C00034B1B780B441360704700BFD004002061
:10068C0004000020014B1868704700BFD004002004
:10069C00F0B583B005460C4600230193FFF7F2FF3B
:1006AC002B689A6812F4807F23D107465A6812F49B
:1006BC00807F03D1DB6A13F4700F29D0504B1E6876
:1006CC00022000F0E1FFB6FBF0F62B6819694D4AE9
:1006DC00114236D1D96802F15C42114231D119690B
:1006EC00494A114240D1DA68484B1A423ED029207F
:1006FC0041E0AB6A43F02003AB62002385F8243061
:10070C00012003B0F0BD2B681B6813F0020F0FD053
:10071C002B681B6813F0020F4FD1B4F1FF3FF7D0D9
:10072C00002CF0D0FFF7AEFFC31BA342F0D9EAE7D1
:10073C00AB6A43F00403AB62002385F8243003203A
:10074C00DFE71969304A114204D1D96802F16E42CF
:10075C0011420DD019692E4A0A405AB9DA682C4B4D
:10076C0013405BB1FC2006E0292004E0142002E0D9
:10077C00542000E0FC2000FB06F607E05420FAE7CA
:10078C00019BB34210D3019B01330193019BB342F4
:10079C0013D2B4F1FF3FF6D0002CF1D0FFF772FF6B
:1007AC00C01BA042EFD9EBE7AB6A43F00403AB628A
:1007BC00002385F824300320A3E72B686FF0120286
:1007CC001A60AB6A43F40073AB622B689B6803F44A
:1007DC006023B3F5602F01D0002092E7287B60B92D
:1007EC00AB6A23F48073AB62AB6A13F4805F88D17D
:1007FC00AB6A43F00103AB6283E7002081E700BFE3
:10080C000000002024499224922449129224490089
:10081C00499224000368D86C7047000030B482B051
:10082C000022019290F82420012A00F091800346C6
:10083C00012280F824204A68062A2DD80468606BAF
:10084C0002EB8202053A4FF01F0C0CFA02FC20EA74
:10085C000C000D6805FA02F2024362630A68092A69
:10086C003AD91C68E06802EB42021E3A4FF0070CC2
:10087C000CFA02FC20EA0C008D6805FA02F2024325
:10088C00E2600A68103A012A36D90020002283F867
:10089C00242002B030BC70470C2A0ED80568286B97
:1008AC0002EB8202233A1F24944020EA04000C68D5
:1008BC0004FA02F202432A63D0E70568E86A02EB05
:1008CC008202413A1F24944020EA04000C6804FA86
:1008DC0002F20243EA62C1E71C68206902EB4202A1
:1008EC004FF0070C0CFA02FC20EA0C008D6805FA9C
:1008FC0002F202432261C4E71A681648824205D00C
:10090C009A6A42F020029A620120BFE7906810F4C4
:10091C00000F1BD1906840F4000090600A68102A08
:10092C0001D00020B2E70C4A12680C49A1FB02125C
:10093C00920C02EB82025200019202E0019A013AFF
:10094C000192019A002AF9D100209FE700209DE72F
:10095C0002209EE7002401400000002083DE1B43A0
:10096C0030B583B00023019303689A6812F0010F2D
:10097C0033D104469A6842F001029A60184B1B6806
:10098C00184AA2FB03239B0C019302E0019B013B41
:10099C000193019B002BF9D1FFF774FE05462368E8
:1009AC009B6813F0010F16D1FFF76CFE431B022B53
:1009BC00F5D923689B6813F0010FF0D1A36A43F0BB
:1009CC001003A362E36A43F00103E362002384F89B
:1009DC002430012002E0002000E0002003B030BDF4
:1009EC000000002083DE1B4390F82430012B68D0DC
:1009FC0010B50446012380F82430FFF7B1FF00281E
:100A0C005BD1A36A23F4407323F0010343F4807396
:100A1C00A36223682C4A934227D0A26A22F4801244
:100A2C00A2625A6812F4806F05D0A26A22F4405276
:100A3C0042F48052A262A26A12F4805F2BD0E26A66
:100A4C0022F00602E262002284F824206FF00202F7
:100A5C001A6023689A6802F46022B2F5602F1DD0E8
:100A6C009A6842F480129A602AE0A2F58062526879
:100A7C0012F4702FD1D0A26A42F48012A262134AEF
:100A8C00526812F4806FD6D0A26A22F4405242F41B
:100A9C008052A262CFE70022E262D4E70A4A934274
:100AAC0004D09A6842F4A0029A6009E0A2F5806230
:100ABC00526812F4702FD3D1F3E7002384F824305A
:100ACC0010BD0220704700BF0028014000240140E7
:100ADC0038B503689A6812F0010F01D1002038BDB7
:100AEC0004469A6822F001029A60FFF7CBFD054696
:100AFC0023689B6813F0010F13D0FFF7C3FD431B52
:100B0C00022BF5D923689B6813F0010FF0D0A36A70
:100B1C0043F01003A362E36A43F00103E362012094
:100B2C00DDE70020DBE7000000287BD070B5044631
:100B3C00836A002B4DD02046FFF7CAFFA36A13F03F
:100B4C00100369D1002867D1A26A22F4885222F0DE
:100B5C00020242F00202A2626268E1690A43217B4E
:100B6C0042EA4102A568B5F5807F02D0012D36D04E
:100B7C001D46267D012E35D02668716821F4694109
:100B8C00294371602568AE68274931401143A9603B
:100B9C00A168B1F5807F01D0012902D12369013B05
:100BAC001B052568E96A21F470010B43EB6223688D
:100BBC0099681E4B0B409A4225D0A36A23F012036E
:100BCC0043F01003A362E36A43F00103E3620120E4
:100BDC0027E0C36280F82430FFF7DEFAABE74FF46E
:100BEC008075C6E731B9A169013945EA413141F453
:100BFC000065C1E7A16A41F02001A162E16A41F000
:100C0C000101E162B8E70023E362A36A23F0030366
:100C1C0043F00103A36204E0A36A43F01003A36250
:100C2C00012070BD01207047FDF7E1FFFE0E1FFF94
:100C3C00074AD36823F4E0631B041B0C000200F486
:100C4C00E060034343F0BF6343F40033D360704769
:100C5C0000ED00E000B5194BDB68C3F30223C3F1D0
:100C6C00070CBCF1040F28BF4FF0040C03F1040E69
:100C7C00BEF1060F18D9033B4FF0FF3E0EFA0CFCE9
:100C8C0021EA0C0199400EFA03F322EA03031943FB
:100C9C0000280BDB0901C9B200F1604000F561408E
:100CAC0080F800135DF804FB0023E5E700F00F006B
:100CBC000901C9B2024B1954F4E700BF00ED00E082
:100CCC0014ED00E0002807DB00F01F0240090123AF
:100CDC009340024A42F82030704700BF00E100E028
:100CEC000138B0F1807F0BD24FF0E0235861054AF8
:100CFC00F02182F823100020986107221A617047B6
:100D0C000120704700ED00E070B582B00024A446CD
:100D1C00A6E0804DAA4210D007D97F4DAA420CD034
:100D2C0005F58035AA4208D013E0A5F58015AA4236
:100D3C0003D005F57025AA4207D18A68002A58D03D
:100D4C00012A51D04361082403E0A5F58015AA427D
:100D5C00F3D0BEF1FF0F4ED80646BEF1FF0F4CD8B4
:100D6C004FEA8C0233680F25954023EA050304FAF9
:100D7C0002F2134333604B6813F0805F6ED0674B05
:100D8C009A6942F001029A619B6903F00103019395
:100D9C00019B4FEA9C02951C614B53F825600CF0AB
:100DAC0003039D000F23AB4026EA03065D4B9842DC
:100DBC0029D003F58063984200F08E8003F58063A0
:100DCC00984200F08B8003F58063984219D004237D
:100DDC001AE0CC68BDE7CC680434BAE7CC680834B8
:100DEC00B7E7CC680C34B4E703610824B1E70024FE
:100DFC00AFE70424ADE7061DAFE7ACF108029200A3
:100E0C00B0E7032300E00023AB4033430232444DF0
:100E1C0045F822304B6813F4801F61D0424A936826
:100E2C0043EA0E0393604B6813F4001F5ED03E4AF6
:100E3C00D36843EA0E03D3604B6813F4003F5BD0D6
:100E4C00394A536843EA0E0353604B6813F4803FEE
:100E5C0058D0354A136843EA0E0313600CF1010CA9
:100E6C000A6832FA0CF353D0012303FA0CF302EAAA
:100E7C00030E33EA0202F1D14A68122A3FF649AF57
:100E8C00122A3FF666AF01A555F822F0470D00086F
:100E9C00DF0D0008E90D0008FB0D00085F0D0008D0
:100EAC005F0D00085F0D00085F0D00085F0D000866
:100EBC005F0D00085F0D00085F0D00085F0D000856
:100ECC005F0D00085F0D00085F0D00085F0D000846
:100EDC00E30D0008EF0D0008012395E7022393E7CB
:100EEC00114A936823EA0E0393609CE70E4AD36879
:100EFC0023EA0E03D3609FE70B4A536823EA0E03E1
:100F0C005360A2E7084A136823EA0E031360A5E7AF
:100F1C0002B070BD00002210000031100010024021
:100F2C0000000140000801400004014083681942A0
:100F3C0001D001207047002070470AB10161704751
:100F4C00090401617047000082B0084B1B68084A15
:100F5C00A2FB03235B0A00FB03F3019300BF019B7D
:100F6C005A1E0192002BF9D102B0704700000020EC
:100F7C00D34D6210002800F0F18170B582B00446A8
:100F8C00036813F0010F2CD0994B5B6803F00C0332
:100F9C00042B1DD0964B5B6803F00C03082B12D06E
:100FAC006368B3F5803F41D0002B55D103F18043EA
:100FBC0003F504331A6822F480321A601A6822F49A
:100FCC0080221A6037E08A4B5B6813F4803FE7D0CD
:100FDC00874B1B6813F4003F03D06368002B00F0B1
:100FEC00BF81236813F0020F75D0814B5B6813F03F
:100FFC000C0F5FD07E4B5B6803F00C03082B54D0B6
:10100C002369002B00F08A807A4B01221A60FFF7CB
:10101C0039FB0546764B1B6813F0020F75D1FFF7B1
:10102C0031FB401B0228F5D903209EE1704A13685E
:10103C0043F480331360636843B3FFF723FB054627
:10104C006B4B1B6813F4003FCBD1FFF71BFB401B12
:10105C006428F5D9032088E1B3F5A02F09D0644B9F
:10106C001A6822F480321A601A6822F480221A60FC
:10107C00E1E703F18043A3F53C331A6842F4802284
:10108C001A601A6842F480321A60D4E7FFF7FAFA51
:10109C000546574B1B6813F4003FA2D0FFF7F2FA3A
:1010AC00401B6428F5D903205FE1514B5B6813F4B6
:1010BC00803FA5D14E4B1B6813F0020F03D0236960
:1010CC00012B40F04F814A4A136823F0F803616901
:1010DC0043EAC1031360236813F0080F33D0A369EC
:1010EC00002B5CD0434B0122C3F88024FFF7CAFAD3
:1010FC0005463F4B5B6A13F0020F21D1FFF7C2FA92
:10110C00401B0228F5D903202FE1394A136823F03C
:10111C00F803616943EAC1031360DCE7354B002235
:10112C001A60FFF7AFFA0546314B1B6813F0020F3C
:10113C00D1D0FFF7A7FA401B0228F5D9032014E100
:10114C000120FFF701FF236813F0040F00F09680D5
:10115C00274BDB6913F0805F34D1254BDA6942F001
:10116C008052DA61DB6903F080530193019B012506
:10117C00214B1B6813F4807F26D0E368012B3DD0F4
:10118C00002B53D103F1804303F504331A6A22F088
:10119C0001021A621A6A22F004021A6233E0154B39
:1011AC000022C3F88024FFF76DFA0546104B5B6AEA
:1011BC0013F0020FC7D0FFF765FA401B0228F5D9D0
:1011CC000320D2E00025D3E70B4A136843F4807365
:1011DC001360FFF757FA0646074B1B6813F4807F22
:1011EC00CBD1FFF74FFA801B6428F5D90320BCE064
:1011FC000010024000004242007000405F4A136A37
:10120C0043F001031362E36833B3FFF73BFA06467E
:10121C005A4B1B6A13F0020F2FD1FFF733FA801BC6
:10122C0041F288339842F3D903209EE0052B09D074
:10123C00524B1A6A22F001021A621A6A22F0040254
:10124C001A62E0E74D4B1A6A42F004021A621A6AFB
:10125C0042F001021A62D6E7FFF714FA0646474B32
:10126C001B6A13F0020F08D0FFF70CFA801B41F237
:10127C0088339842F3D9032077E0E5B9E369002B72
:10128C0072D03E4A526802F00C02082A56D0022B49
:10129C0017D03B4B00221A66FFF7F4F90446374B84
:1012AC001B6813F0007F47D0FFF7ECF9001B0228F6
:1012BC00F5D9032059E0314AD36923F08053D36127
:1012CC00DCE72F4B00221A66FFF7DCF905462B4BA7
:1012DC001B6813F0007F06D0FFF7D4F9401B0228DF
:1012EC00F5D9032041E0236AB3F5803F1AD0234996
:1012FC004B6823F47413226A606A024313434B60F5
:10130C001F4B01221A66FFF7BDF904461B4B1B68E5
:10131C0013F0007F0ED1FFF7B5F9001B0228F5D9A9
:10132C00032022E0154A536823F40033A1680B43D1
:10133C005360DCE7002018E0002016E0012B16D0EB
:10134C000E4B5B6803F48031226A914211D103F495
:10135C007013626A93420ED1002006E001207047A0
:10136C00012002E0012000E0002002B070BD01204D
:10137C00FBE70120F9E70120F7E700BF001002406E
:10138C00000042420F4B5B6803F00C02082A01D0AC
:10139C000D487047C3F383420C49885C13F4803FBB
:1013AC000BD0084B5B68C3F34043094AD35C064A35
:1013BC0002FB00F0B0FBF3F07047064B03FB00F0B0
:1013CC00704700BF0010024000127A00F0210008A4
:1013DC000022000800093D00002800F0A08070B534
:1013EC000D460446524B1B6803F007038B420BD28D
:1013FC004F4A136823F007030B431360136803F081
:10140C0007038B4240F08D80236813F0020F17D036
:10141C0013F0040F04D0474A536843F4E06353605D
:10142C00236813F0080F04D0424A536843F4605306
:10143C005360404A536823F0F003A1680B43536098
:10144C00236813F0010F31D06368012B20D0022BDD
:10145C0025D0384A126812F0020F64D035494A6818
:10146C0022F0030213434B60FFF70CF90646314B95
:10147C005B6803F00C036268B3EB820F16D0FFF7C6
:10148C0001F9801B41F288339842F0D9032045E0E2
:10149C00284A126812F4003FE0D101203EE0254AB0
:1014AC00126812F0007FD9D1012037E0204B1B6865
:1014BC0003F00703AB420AD91D4A136823F0070354
:1014CC002B431360136803F00703AB422DD1236841
:1014DC0013F0040F06D0174A536823F4E063E16855
:1014EC000B435360236813F0080F07D0114A53685D
:1014FC0023F46053216943EAC1035360FFF742FFB1
:10150C000C4B5B68C3F303130B4AD35CD8400B4BF7
:10151C0018600B4B1868FFF771F8002070BD0120A4
:10152C0070470120FAE70120F8E70120F6E700BF39
:10153C000020024000100240D821000800000020CA
:10154C0008000020014B1868704700BF0000002005
:10155C0008B5FFF7F7FF044B5B68C3F3C223034ADC
:10156C00D35CD84008BD00BF00100240E821000841
:10157C0070B582B00446036813F0010F36D03F4BB0
:10158C00DB6913F0805F49D13C4BDA6942F0805241
:10159C00DA61DB6903F080530193019B0125384B21
:1015AC001B6813F4807F3BD0344B1B6A13F44073DD
:1015BC0013D0626802F440729A420ED02F4A136A1A
:1015CC0023F440702F490126C1F840640026C1F86D
:1015DC004064106213F0010F36D1284A136A23F4C9
:1015EC00407361680B431362002D3ED1236813F0E6
:1015FC00020F06D0214A536823F44043A1680B43E1
:10160C005360236813F0100F34D01C4A536823F432
:10161C008003E1680B43536000202CE00025BEE7FB
:10162C00174A136843F480731360FFF72BF80646D0
:10163C00134B1B6813F4807FB6D1FFF723F8801B84
:10164C006428F5D9032016E0FFF71CF806460B4B6F
:10165C001B6A13F0020FC0D1FFF714F8801B41F284
:10166C0088339842F3D9032005E0D36923F08053E3
:10167C00D361BBE7002002B070BD00BF0010024078
:10168C00007000400000424208B502284ED01028DD
:10169C0003D0012828D0002008BD2B4B5A681868AD
:1016AC0010F08070F8D0C2F383432849C85C12F460
:1016BC00803F15D0244B5B68C3F34043244AD25C73
:1016CC00244BB3FBF2F303FB00F01F4B5B6813F4EA
:1016DC00800FE1D14000204BA3FB00304008DBE73A
:1016EC001E4B03FB00F0F0E7174B1B6A40F2023273
:1016FC001A40B2F5817F24D003F44073B3F5007F18
:10170C0004D0B3F5407F09D00020C5E70E4A526AD9
:10171C0012F0020FF5D049F64040BDE70A4B1868AD
:10172C0010F40030B8D04FF22440B5E7FFF710FFAB
:10173C00054B5B68C3F3813301335B00B0FBF3F003
:10174C00AAE74FF40040A7E700100240042200086B
:10175C001422000800127A00ABAAAAAA00093D00C4
:10176C0070B4036A026A22F001020262466882695E
:10177C0022F073020C6844EA020523F002028B6823
:10178C0013430D4CA04209D00B4CA0420DD0466027
:10179C0085614A684263036270BC704723F008039A
:1017AC00CA68134323F00403EEE726F440764A6933
:1017BC0032438E691643EAE7002C014030B4036AC9
:1017CC00026A22F4807202624568C26922F07302D6
:1017DC000C68224323F400738C6843EA04230F4CF7
:1017EC00A04209D00D4CA0420ED04560C2614A689F
:1017FC00C263036230BC704723F40063CC6843EAD5
:10180C00042323F48063EDE725F440554C6945EA45
:10181C0004158C6945EA0415E7E700BF002C01406C
:10182C0030B4036A026A22F4805202624468C269CC
:10183C0022F4E6420D6842EA052223F400538D6837
:10184C0043EA0533074DA84206D04460C2614A689A
:10185C000264036230BC704724F480444D6944EA4E
:10186C008514F2E7002C014010B4036A046A24F0DA
:10187C0001040462846924F0F00C4CEA021223F097
:10188C000A030B438261036210BC704710B4036AF5
:10189C00046A24F010040462846924F4704C4CEA49
:1018AC00023223F0A00343EA01138261036210BCED
:1018BC007047836823F070030B4343F00703836086
:1018CC007047000090F83D30DBB2012B27D102238A
:1018DC0080F83D300268D36843F00103D36003689D
:1018EC00114A934210D0B3F1804F0DD0A2F594322F
:1018FC00934209D002F58062934205D01A6842F0F7
:10190C0001021A60002070479A6802F00702062A4A
:10191C0007D01A6842F001021A60002070470120BB
:10192C0070470020704700BF002C01407047704783
:10193C0070477047704710B5044603681A6912F077
:10194C00020F11D0DA6812F0020F0DD06FF0020204
:10195C001A610123037703689B6913F0030F70D09E
:10196C00FFF7E6FF0023237723681A6912F0040FB0
:10197C0012D0DA6812F0040F0ED06FF004021A6164
:10198C000223237723689B6913F4407F5FD02046A2
:10199C00FFF7CEFF0023237723681A6912F0080F94
:1019AC0012D0DA6812F0080F0ED06FF008021A612C
:1019BC00042323772368DB6913F0030F4ED02046F2
:1019CC00FFF7B6FF0023237723681A6912F0100F74
:1019DC0012D0DA6812F0100F0ED06FF010021A61EC
:1019EC00082323772368DB6913F4407F3DD020461E
:1019FC00FFF79EFF0023237723681A6912F0010F6B
:101A0C0003D0DA6812F0010F36D123681A6912F08C
:101A1C00800F03D0DA6812F0800F34D123681A6972
:101A2C0012F0400F03D0DA6812F0400F32D1236865
:101A3C001A6912F0200F03D0DA6812F0200F30D19F
:101A4C0010BDFFF774FF2046FFF773FF8AE72046AF
:101A5C00FFF76DFF2046FFF76CFF9BE72046FFF773
:101A6C0066FF2046FFF765FFACE72046FFF75FFFF8
:101A7C002046FFF75EFFBDE76FF001021A612046BA
:101A8C00FEF700FCC1E76FF080021A61204600F0FF
:101A9C00A9FAC3E76FF040021A612046FFF74AFF2C
:101AAC00C5E76FF020021A61204600F09AFAC7E7EA
:101ABC0003681B4A90420AD0B0F1804F07D0A2F5C0
:101ACC009432904203D002F58062904203D123F00D
:101ADC0070034A681343124A90420AD0B0F1804F07
:101AEC0007D0A2F59432904203D002F58062904266
:101AFC0003D123F44073CA68134323F080034A696B
:101B0C00134303608B68C3620B688362044B984277
:101B1C0002D00123436170470B690363F9E700BFEF
:101B2C00002C014040B310B5044690F83D30F3B1A1
:101B3C00022384F83D30214651F8040BFFF7B8FF1F
:101B4C00012384F8463084F83E3084F83F3084F822
:101B5C00403084F8413084F8423084F8433084F8C3
:101B6C00443084F8453084F83D30002010BD80F8B6
:101B7C003C30FEF74BFCDBE70120704740B310B55F
:101B8C00044690F83D30F3B1022384F83D302146F1
:101B9C0051F8040BFFF78CFF012384F8463084F8CE
:101BAC003E3084F83F3084F8403084F8413084F87B
:101BBC00423084F8433084F8443084F8453084F85B
:101BCC003D30002010BD80F83C30FFF7AFFEDBE766
:101BDC000120704730B4036A026A22F010020262DC
:101BEC004468826922F4E6420D6842EA052223F039
:101BFC0020038D6843EA05130E4DA84209D00D4D04
:101C0C00A8420ED0446082614A688263036230BC91
:101C1C00704723F08003CD6843EA051323F040039B
:101C2C00EDE724F440644D6944EA85048D6944EA87
:101C3C008504E7E7002C014038B590F83C30012BC7
:101C4C0066D004460D46012380F83C300C2A5AD845
:101C5C00DFE802F0075959591B595959305959594C
:101C6C0044000068FFF77CFD2268936943F0080389
:101C7C0093612268936923F004039361226893694A
:101C8C0029690B43936100203EE00068FFF7A2FF37
:101C9C002268936943F4006393612268936923F487
:101CAC008063936122689369296943EA01239361F4
:101CBC00002029E00068FFF781FD2268D36943F01A
:101CCC000803D3612268D36923F00403D36122682B
:101CDC00D36929690B43D361002015E00068FFF735
:101CEC009FFD2268D36943F40063D3612268D369F2
:101CFC0023F48063D3612268D369296943EA012301
:101D0C00D361002000E00120002384F83C3038BD72
:101D1C000220FCE710B4846824F47F4C42EA0322CE
:101D2C000A4342EA0C02826010BC704790F83C30C7
:101D3C00012B78D010B50446012380F83C300223E7
:101D4C0080F83D300268936823F47F4323F07703D7
:101D5C0093600B68602B4CD029D8402B54D00CD9F5
:101D6C00502B22D1CA6849680068FFF77DFD5021CD
:101D7C002068FFF79EFD002005E0202B0DD009D92F
:101D8C00302B0AD00120012384F83D30002384F845
:101D9C003C3010BD0BB1102B05D119462068FFF754
:101DAC0088FD0020EFE70120EDE70120EBE7B3F51C
:101DBC00805F34D0B3F5005F0CD1CB684A6889687A
:101DCC000068FFF7A7FF2268936843F48043936091
:101DDC000020D8E7702B24D1CB684A68896800684A
:101DEC00FFF798FF2268936843F077039360002015
:101DFC00C9E7CA6849680068FFF748FD6021206898
:101E0C00FFF757FD0020BEE7CA6849680068FFF776
:101E1C002BFD40212068FFF74CFD0020B3E700208C
:101E2C00B1E70120AFE70220704701F01F01012349
:101E3C0003FA01FC036A23EA0C030362036A02FA45
:101E4C0001F10B430362704710B50446084651BBC1
:101E5C0094F83E30DBB2013B18BF0123002B5BD161
:101E6C00002839D1022384F83E3001220146206833
:101E7C00FFF7DBFF23682A4A93423DD02368284AA8
:101E8C0093423ED0B3F1804F3BD0A2F594329342B3
:101E9C0037D002F58062934233D01A6842F00102C7
:101EAC001A60002039E0042908D008290DD094F8D4
:101EBC004130DBB2013B18BF0123CFE794F83F3030
:101ECC00DBB2013B18BF0123C8E794F84030DBB20A
:101EDC00013B18BF0123C1E7042805D0082807D00F
:101EEC00022384F84130C0E7022384F83F30BCE77A
:101EFC00022384F84030B8E75A6C42F400425A642A
:101F0C00BCE79A6802F00702062A07D01A6842F06A
:101F1C0001021A60002000E0012010BD0020FCE747
:101F2C00002C014090F83C30012B2CD010B4012334
:101F3C0080F83C30022380F83D3003685A689C6876
:101F4C0022F0700C0A6842EA0C025A6003680F4ACD
:101F5C0093420AD0B3F1804F07D0A2F5943293424A
:101F6C0003D002F58062934204D124F080044A68C5
:101F7C0014439C60012380F83D30002380F83C30F2
:101F8C00184610BC70470220704700BF002C01405F
:101F9C0090F83C30012B22D0012380F83C30CB68E8
:101FAC0023F440738A68134323F480634A68134311
:101FBC0023F400630A68134323F480530A69134320
:101FCC0023F400534A69134323F48043CA6913432F
:101FDC0002685364002380F83C3018467047022096
:101FEC00704770477047000070B50D4E0D4D761B55
:101FFC00B61006D0002455F8043B01349847A6428D
:10200C00F9D1094E094D00F0D5F8761BB61006D063
:10201C00002455F8043B01349847A642F9D170BD11
:10202C001C2200081C220008242200081C22000884
:10203C00830730B548D0541E002A3FD00346CAB29D
:10204C0001E0013C3AD303F8012B9D07F9D1032C95
:10205C002DD9CDB245EA05250F2C45EA054536D9D3
:10206C00A4F1100222F00F0C03F1200EE6444FEA0B
:10207C00121C03F1100242E9045542E902551032D8
:10208C007245F8D10CF1010214F00C0F03EB0212A3
:10209C0004F00F0C13D0ACF1040323F0030304334E
:1020AC00134442F8045B9342FBD10CF003042CB1B3
:1020BC00CAB21C4403F8012B9C42FBD130BD6446D0
:1020CC001346002CF4D1F9E703461446BFE71A4631
:1020DC00A446E0E7024B13B1024800F005B8704784
:1020EC000000000001210008002301461A46184692
:1020FC0000F01AB838B5084B084D5B1B9C1007D084
:10210C00043B1D44013C55F804399847002CF9D187
:10211C00BDE8384000F054B82822000824220008FA
:10212C00704700BF704700BF2DE9F047DFF87CA077
:10213C000646DAF8000098460F469146FFF7F0FF86
:10214C001B4B1B68D3F8484124B365681F2D26DC54
:10215C005EB96B1C0235DAF80000636044F8257038
:10216C00FFF7E0FF0020BDE8F087012304EB8501B9
:10217C00C1F88890D4F88821AB401A43022EC4F8D9
:10218C008821C1F80881E4D1D4F88C211343C4F818
:10219C008C31DEE703F5A674C3F84841D5E7DAF8CD
:1021AC000000FFF7BFFF4FF0FF30DCE738040020E2
:1021BC0018220008F8B500BFF8BC08BC9E46704752
:0C21CC00F8B500BFF8BC08BC9E46704788
:1021D80000000000000000000102030406070809CF
:1021E80000000000010203040203040506070809B1
:1021F8000A0B0C0D0E0F101001020000020304055B
:10220800060708090A0B0C0D0E0F1010010200003A
:042218001000002092
:08221C00E12000083101000877
:042224000D010008A0
:102228000024F4000100000010000000000000007D
:1022380000000000FC02002064030020CC03002002
:102248000000000000000000000000000000000086
:102258000000000000000000000000000000000076
:102268000000000000000000000000000000000066
:102278000000000000000000000000000000000056
:102288000000000000000000000000000000000046
:102298000000000000000000000000000000000036
:1022A8000000000000000000000000000000000026
:1022B8000000000000000000000000000000000016
:1022C8000000000000000000000000000000000006
:1022D80000000000000000000100000000000000F5
:1022E8000E33CDAB34126DE6ECDE05000B000000BA
:1022F80000000000000000000000000000000000D6
:1023080000000000000000000000000000000000C5
:1023180000000000000000000000000000000000B5
:1023280000000000000000000000000000000000A5
:0C2658000000000000000000D40400207E
:04000005080005BD2D
:00000001FF
